{
  "contractName": "SimpleStorage",
  "abi": [
    {
      "constant": true,
      "inputs": [
        {
          "internalType": "uint256",
          "name": "",
          "type": "uint256"
        }
      ],
      "name": "arr",
      "outputs": [
        {
          "internalType": "uint256",
          "name": "",
          "type": "uint256"
        }
      ],
      "payable": false,
      "stateMutability": "view",
      "type": "function"
    },
    {
      "constant": true,
      "inputs": [],
      "name": "c",
      "outputs": [
        {
          "internalType": "uint256",
          "name": "",
          "type": "uint256"
        }
      ],
      "payable": false,
      "stateMutability": "view",
      "type": "function"
    },
    {
      "constant": true,
      "inputs": [],
      "name": "i",
      "outputs": [
        {
          "internalType": "uint256",
          "name": "",
          "type": "uint256"
        }
      ],
      "payable": false,
      "stateMutability": "view",
      "type": "function"
    },
    {
      "constant": true,
      "inputs": [],
      "name": "storedData",
      "outputs": [
        {
          "internalType": "uint256",
          "name": "",
          "type": "uint256"
        }
      ],
      "payable": false,
      "stateMutability": "view",
      "type": "function"
    },
    {
      "constant": false,
      "inputs": [
        {
          "internalType": "uint256",
          "name": "x",
          "type": "uint256"
        }
      ],
      "name": "set",
      "outputs": [],
      "payable": false,
      "stateMutability": "nonpayable",
      "type": "function"
    },
    {
      "constant": true,
      "inputs": [],
      "name": "getValArr",
      "outputs": [
        {
          "internalType": "uint256[]",
          "name": "",
          "type": "uint256[]"
        }
      ],
      "payable": false,
      "stateMutability": "view",
      "type": "function"
    },
    {
      "constant": true,
      "inputs": [],
      "name": "get",
      "outputs": [
        {
          "internalType": "uint256",
          "name": "",
          "type": "uint256"
        }
      ],
      "payable": false,
      "stateMutability": "view",
      "type": "function"
    },
    {
      "constant": true,
      "inputs": [
        {
          "internalType": "uint256",
          "name": "y",
          "type": "uint256"
        }
      ],
      "name": "mapValues",
      "outputs": [
        {
          "internalType": "uint256",
          "name": "",
          "type": "uint256"
        }
      ],
      "payable": false,
      "stateMutability": "view",
      "type": "function"
    }
  ],
  "bytecode": "0x6080604052610154600155600060035534801561001b57600080fd5b5061037c8061002b6000396000f3fe608060405234801561001057600080fd5b50600436106100885760003560e01c806371e5ee5f1161005b57806371e5ee5f146101395780638b038a8e1461017b578063c3da42b8146101da578063e5aa3d58146101f857610088565b80632a1afcd91461008d57806360fe47b1146100ab5780636d4ce63c146100d957806371c61bb7146100f7575b600080fd5b610095610216565b6040518082815260200191505060405180910390f35b6100d7600480360360208110156100c157600080fd5b810190808035906020019092919050505061021c565b005b6100e1610295565b6040518082815260200191505060405180910390f35b6101236004803603602081101561010d57600080fd5b81019080803590602001909291905050506102a2565b6040518082815260200191505060405180910390f35b6101656004803603602081101561014f57600080fd5b81019080803590602001909291905050506102c2565b6040518082815260200191505060405180910390f35b6101836102e3565b6040518080602001828103825283818151815260200191508051906020019060200280838360005b838110156101c65780820151818401526020810190506101ab565b505050509050019250505060405180910390f35b6101e261033b565b6040518082815260200191505060405180910390f35b610200610341565b6040518082815260200191505060405180910390f35b60005481565b6040518060200160405280828152506004600060035481526020019081526020016000206000820151816000015590505060028190806001815401808255809150509060018203906000526020600020016000909192909190915055508060008190555060036000815480929190600101919050555050565b6000600560005402905090565b600060046000838152602001908152602001600020600001549050919050565b600281815481106102cf57fe5b906000526020600020016000915090505481565b6060600280548060200260200160405190810160405280929190818152602001828054801561033157602002820191906000526020600020905b81548152602001906001019080831161031d575b5050505050905090565b60015481565b6003548156fea265627a7a72315820096c7a958636f50325736d469d033e1d6cea0c946638845420f3763edb4cfaf564736f6c63430005100032",
  "source": "// SPDX-License-Identifier: MIT\npragma solidity >=0.4.21 <0.7.0;\n\ncontract SimpleStorage {\n  uint public storedData;\n  uint public c=340;\n  uint[] public arr;\n  uint public i=0;\n  struct Val{\n    uint val;\n  }\n \n mapping(uint=>Val) mapVal;\n  function set(uint x) public {\n    mapVal[i]=Val(x);\n    arr.push(x);\n    storedData = x;\n    i++;\n  }\nfunction getValArr() public view returns(uint[] memory){\n  return arr;\n}\n  function get() public view returns (uint) {\n   \n    return (storedData * 5);\n  \n  }\n   function mapValues(uint y) public view returns(uint){\n        return  mapVal[y].val;\n    }\n}\n",
  "sourcePath": "F:/Truffle Ganache/Truffle Projects/Ethereum work/frontend/contracts/SimpleStorage.sol",
  "compiler": {
    "name": "solc",
    "version": "0.5.16+commit.9c3226ce.Emscripten.clang"
  },
  "schemaVersion": "3.3.1",
  "updatedAt": "2021-07-22T14:52:14.662Z",
  "networkType": "ethereum",
  "devdoc": {
    "methods": {}
  },
  "userdoc": {
    "methods": {}
  }
}