{
  "contractName": "SimpleStorage",
  "abi": [
    {
      "constant": true,
      "inputs": [
        {
          "internalType": "uint256",
          "name": "",
          "type": "uint256"
        }
      ],
      "name": "arr",
      "outputs": [
        {
          "internalType": "uint256",
          "name": "",
          "type": "uint256"
        }
      ],
      "payable": false,
      "stateMutability": "view",
      "type": "function"
    },
    {
      "constant": true,
      "inputs": [],
      "name": "c",
      "outputs": [
        {
          "internalType": "uint256",
          "name": "",
          "type": "uint256"
        }
      ],
      "payable": false,
      "stateMutability": "view",
      "type": "function"
    },
    {
      "constant": true,
      "inputs": [],
      "name": "storedData",
      "outputs": [
        {
          "internalType": "uint256",
          "name": "",
          "type": "uint256"
        }
      ],
      "payable": false,
      "stateMutability": "view",
      "type": "function"
    },
    {
      "constant": false,
      "inputs": [
        {
          "internalType": "uint256",
          "name": "x",
          "type": "uint256"
        }
      ],
      "name": "set",
      "outputs": [],
      "payable": false,
      "stateMutability": "nonpayable",
      "type": "function"
    },
    {
      "constant": true,
      "inputs": [],
      "name": "getValArr",
      "outputs": [
        {
          "internalType": "uint256[]",
          "name": "",
          "type": "uint256[]"
        }
      ],
      "payable": false,
      "stateMutability": "view",
      "type": "function"
    },
    {
      "constant": true,
      "inputs": [],
      "name": "get",
      "outputs": [
        {
          "internalType": "uint256",
          "name": "",
          "type": "uint256"
        }
      ],
      "payable": false,
      "stateMutability": "view",
      "type": "function"
    }
  ],
  "bytecode": "0x608060405261015460015534801561001657600080fd5b5061028d806100266000396000f3fe608060405234801561001057600080fd5b50600436106100625760003560e01c80632a1afcd91461006757806360fe47b1146100855780636d4ce63c146100b357806371e5ee5f146100d15780638b038a8e14610113578063c3da42b814610172575b600080fd5b61006f610190565b6040518082815260200191505060405180910390f35b6100b16004803603602081101561009b57600080fd5b8101908080359060200190929190505050610196565b005b6100bb6101cc565b6040518082815260200191505060405180910390f35b6100fd600480360360208110156100e757600080fd5b81019080803590602001909291905050506101d9565b6040518082815260200191505060405180910390f35b61011b6101fa565b6040518080602001828103825283818151815260200191508051906020019060200280838360005b8381101561015e578082015181840152602081019050610143565b505050509050019250505060405180910390f35b61017a610252565b6040518082815260200191505060405180910390f35b60005481565b60028190806001815401808255809150509060018203906000526020600020016000909192909190915055508060008190555050565b6000600560005402905090565b600281815481106101e657fe5b906000526020600020016000915090505481565b6060600280548060200260200160405190810160405280929190818152602001828054801561024857602002820191906000526020600020905b815481526020019060010190808311610234575b5050505050905090565b6001548156fea265627a7a72315820f068642d532cdccca25b241a2642b9554ace691fa70793b73773591afa1b628b64736f6c63430005100032",
  "source": "// SPDX-License-Identifier: MIT\npragma solidity >=0.4.21 <0.7.0;\n\ncontract SimpleStorage {\n  uint public storedData;\n  uint public c=340;\n uint[] public arr;\n  function set(uint x) public {\n    arr.push(x);\n    storedData = x;\n  }\nfunction getValArr() public view returns(uint[] memory){\n  return arr;\n}\n  function get() public view returns (uint) {\n   \n    return (storedData * 5);\n  \n  }\n}\n",
  "sourcePath": "F:/Truffle Ganache/Truffle Projects/Ethereum work/frontend/contracts/SimpleStorage.sol",
  "compiler": {
    "name": "solc",
    "version": "0.5.16+commit.9c3226ce.Emscripten.clang"
  },
  "schemaVersion": "3.3.1",
  "updatedAt": "2021-07-20T14:16:19.758Z",
  "networkType": "ethereum",
  "devdoc": {
    "methods": {}
  },
  "userdoc": {
    "methods": {}
  }
}